:020000040800F2
:1000000068700020B90200082923000811220008A6
:1000100025230008B51C00083B360008000000003E
:10002000000000000000000000000000972B000806
:10003000B91C000800000000C9230008A92C000812
:10004000D3020008D3020008D3020008B927000831
:10005000D3020008D3020008D3020008D30200082C
:10006000D3020008D3020008D3020008D30200081C
:10007000D3020008D3020008D3020008D30200080C
:10008000D3020008D3020008D3020008D3020008FC
:10009000D3020008D3020008D3020008D3020008EC
:1000A000D3020008D3020008D3020008D3020008DC
:1000B000D30200080D2D0008892D0008D302000886
:1000C000D3020008D3020008D3020008D3020008BC
:1000D000D3020008A12F000829300008D30200082D
:1000E000D3020008D3020008D3020008D30200089C
:1000F000D3020008D3020008D3020008D30200088C
:10010000D3020008D3020008D3020008D30200087B
:10011000D3020008D3020008D3020008D30200086B
:10012000D3020008D3020008D3020008D30200085B
:1001300000F002F800F0B0F80AA090E8000C824449
:100140008344AAF10107DA4501D100F0A5F8AFF226
:10015000090EBAE80F0013F0010F18BFFB1A43F0A5
:10016000010318474C5F00006C5F00000A444FF029
:10017000000C10F8013B13F0070408BF10F8014B06
:100180001D1108BF10F8015B641E05D010F8016B4B
:10019000641E01F8016BF9D113F0080F1EBF10F8AF
:1001A000014BAD1C0C1B09D16D1E58BF01F801CBD2
:1001B000FAD505E014F8016B01F8016B6D1EF9D555
:1001C0009142D6D37047000000230024002500266A
:1001D000103A28BF78C1FBD8520728BF30C148BFAA
:1001E0000B6070476E2900F02F83702900F0838424
:1001F000662905F06286652905F05F86672905F0A6
:100200005C866129AFF3008003681B0A28BF41F0B8
:100210008001692900F0CE80642900F0CB80752927
:1002200000F0C8806F2900F01184782900F04F8415
:10023000E92900F0AB83E42900F0A883F52900F058
:10024000A583EF2900F00E84F82900F04E8403689E
:10025000DB0928BF41F08001632900F0B3867329D0
:1002600000F0B886E32900F0C386F32900F0C886C1
:10027000002070471FB500F019FF04000020002186
:1002800004F094FD401C60600020002104F078FD23
:10029000E0601FBD10B510BD00F0DAFE1146FFF79B
:1002A000E9FF04F0FDFB00F0B3FF03B4FFF7F2FF3A
:1002B00003BC03F0FAF900000948804709480047E9
:1002C000FEE7FEE7FEE7FEE7FEE7FEE7FEE7FEE706
:1002D000FEE7FEE704480549054A064B7047000063
:1002E000AD2C000831010008686000206870002013
:1002F0006868002068680020704700001CB50C4644
:10030000064B7B4469460090204600F0B6FA04464E
:100310000020694600F0C4FA20461CBD9B05000081
:100320000FB4044910B503AA029800F0BFFA10BC3C
:100330005DF814FB380100200FB41CB5084B06AA69
:100340007B4469460090059800F097FA0446002027
:10035000694600F0A5FA20461CBC5DF814FB0000BD
:100360005D05000070B5044685690068C10601D5C9
:10037000302600E02026C00707D070BDD4E9012157
:1003800030469047206A401C20626D1EF6D570BD35
:1003900070B5044685690078C00707D170BDD4E9FF
:1003A000012120209047206A401C20626D1EF6D556
:1003B00070BD00002DE9F041064600241068752943
:1003C000314616A510D000F0ABF9002802DA404201
:1003D00013A507E031688A0701D512A502E0490795
:1003E00004D511A5012401E000F0A3F900210A229F
:1003F00006F1240709E0B0FBF2FCB0FBF2F302FBCC
:100400001C00303078541846491C0028F3D123468C
:100410002A463046BDE8F04100F0BDB900000000BA
:100420002D0000002B000000200000002DE9F05FEF
:10043000894604464FF0000ADFF874B1FB44C0F867
:1004400020A02046E1688847002874D0252806D0DF
:10045000D4E901219047206A401C2062F1E7002680
:100460005F462046E16888472028054607DB312D96
:1004700005D2781910F8200C08B10643F1E7B0074F
:1004800001D526F00406C4F81CA00027C4F818A063
:100490002A2D09D0284603F001F938B304EB870868
:1004A000303DC8F8185019E059F8041B204604EBF9
:1004B00087029161E1688847012F054618D1E069FC
:1004C000002820DA26F020061DE0D8F8180000EBFE
:1004D000800005EB40003038C8F818002046E1687D
:1004E0008847054603F0DAF80028EED1012F0AD03C
:1004F0002E2D08D12046E16888477F1C0546022F33
:1005000046F02006C4DBA069002803DA404246F02A
:100510000106A061F00701D026F010066C2D0BD06B
:10052000682D09D04C2D39D06A2D35D0742D35D099
:100530007A2D33D016E038E0E1682F462046884710
:10054000B842054609D16C2F26D04FF48060E1688F
:10055000064320468847054604E06C2F1AD04FF426
:10056000807006430DB3A5F14100192802D820354B
:1005700046F400664A462946204626604E46FFF766
:1005800031FE80B101280BD0F61D26F0070000F1E6
:10059000080956E74020E4E78020D8E70020D6E7A6
:1005A00006F104094DE7284652E7206ABDE8F09FAE
:1005B000965A000030B505460B462A4613F8014B03
:1005C00012F8010B08B1A042F8D01CB1002802D0EB
:1005D0006D1CF1E7284630BD40EA010310B59B07CA
:1005E0000FD1042A0DD310C808C9121F9C42F8D09D
:1005F00020BA19BA884201D9012010BD4FF0FF304E
:1006000010BD1AB1D30703D0521C07E0002010BD63
:1006100010F8013B11F8014B1B1B07D110F8013BEF
:1006200011F8014B1B1B01D1921EF1D1184610BDD0
:1006300010B5431C02E010F8011B71B18107FAD11B
:100640004FF0013202C88C1A8C4314EAC211F9D05F
:10065000C01A0A0603D0C01E10BDC01A10BD0A047D
:1006600001D0801E10BD0902FCD0401E10BD421EEC
:1006700012F8013F002BFBD111F8013B002B02F8CF
:10068000013BF9D170474FF000020429C0F01280FD
:1006900010F0030C00F01B80CCF1040CBCF1020F35
:1006A00018BF00F8012BA8BF20F8022BA1EB0C010A
:1006B00000F00DB85FEAC17C24BF00F8012B00F800
:1006C000012B48BF00F8012B70474FF0000200B526
:1006D000134694469646203922BFA0E80C50A0E865
:1006E0000C50B1F12001BFF4F7AF090728BFA0E813
:1006F0000C5048BF0CC05DF804EB890028BF40F8DF
:10070000042B08BF704748BF20F8022B11F0804F20
:1007100018BF00F8012B704770477047704770474B
:1007200009684A0501D540B27047C905FCD500B239
:10073000704709684A0501D5C0B27047C905FCD5A4
:1007400080B2704770B50C460546012A05D028785E
:10075000800600D5EA69002302E0012305E05B1C66
:10076000934202D2E05C0028F9D1A869E618C01AC9
:10077000A861286A184428622846FFF7F3FD04E0C0
:10078000D5E9012114F8010B9047B442F8D328466B
:10079000FFF7FEFD70BD2DE9F0470D4699469246E4
:1007A000044600F124080168880604D5E06921F0B8
:1007B0001001216000E00120A84201DD471B00E09C
:1007C0000027A1697A1902EB0900081AA0612078B4
:1007D000C00602D42046FFF7C5FD002608E0D4E994
:1007E00001211AF806009047206A401C761C2062FE
:1007F0004E45F4DB2078C0060AD52046FFF7B2FD4F
:1008000006E0D4E9012130209047206A401C206294
:10081000381EA7F10107F4DC07E0D4E9012118F83C
:1008200005009047206A401C2062281EA5F10105A2
:10083000F3DC2046FFF7ACFD2078000602D502204D
:10084000BDE8F0870120FBE711680268006A5305E4
:1008500001D508700AE0D30501D5088006E013062B
:1008600003D5C217C1E9000200E00860012070470B
:1008700001694A1C02610878704700B58FB0CDE964
:1008800001310021059105497944CDE90310114654
:100890006846FFF7CBFD0FB000BD0000E5FFFFFF8E
:1008A0000A6802F8010B0A6070470000074B70B538
:1008B0000D467B44FFF7E1FF0446284600F0A4FB09
:1008C00010B14FF0FF3070BD204670BD9F3D00005D
:1008D0002DE9FF5F15468A460446DFF8AC80F844F0
:1008E0000027D8E900103E46CDE9001010E03AF8A4
:1008F00016106A4602A800F08BFB411C07D0217835
:10090000890603D5E269391891420DD80744761C4F
:100910002078800602D5E069B84205DDAE42E6DB0C
:100920003AF816000028E2D1A069C01BA061204659
:10093000FFF718FDD8E90010CDE90010002017E0FE
:100940003AF818106A4602A800F062FBB0F1FF3FC7
:1009500081460BD000250DF1080B05E0D4E90121FB
:100960001BF8050090476D1C4D45F7D308F10100B9
:10097000B0428046E4DB206A384420622046FFF71C
:1009800007FDBDE8FF9F0000065600002DE9F0417D
:100990008046D21D22F007020025D2E90002F52987
:1009A00015A614D0011E72F1000106DA0023D0EB67
:1009B000030063EB020211A608E0D8F800108B07D1
:1009C00001D50FA602E0490701D50EA60125114663
:1009D000002408F1240704E000F098F830323A557A
:1009E000641C50EA0102F7D12B46324621464046AC
:1009F000BDE8F041FFF7CFBE000000002D00000071
:100A00002B0000002000000030B4002100F124047D
:100A100008E002F00705D208303542EA4372DB08ED
:100A20006554491C52EA0305F3D10468002310A25F
:100A3000250708D504F020040C4304D0C469012321
:100A40000CA2641EC46130BCFFF7A5BE10B50446FD
:100A500021461068FFF76DFE02462046BDE81040B3
:100A60000023D1E7D21D22F00701D1E90023CBE713
:100A70000000000030000000F0B40D4601880905B8
:100A800002D5214C7C4402E01F4C7C440E340021F2
:100A900000F1240608E002F00F071209E75D42EAC0
:100AA00003721B097754491C52EA0307F3D10278F9
:100AB0000023120704D5702D06D009B1022311348A
:100AC0002246F0BCFFF767BE01231034F8E770B58B
:100AD00004460D4621461068FFF72BFE02462946C4
:100AE0002046BDE870400023C6E7D21D22F0070370
:100AF000D3E90023C0E70368126843F020030360D2
:100B00000823C3610023B7E76854000030B5B0F193
:100B10000A024FEA900E71F100034EEA817EB0EBBB
:100B20000E0061EB91014FEA101E4EEA017E10EBC0
:100B30000E0041EB11114FEA102E4EEA016E10EB40
:100B40000E0041EB11214FEA104E4EEA014E10EB20
:100B50000E0041EB1141401841F100014FEAD00075
:100B600040EA41704FEAD10110EB80054FEA810461
:100B700044EA907444EB01046D1944EB0404521BE5
:100B8000A3414FF0000348BF0A3200D530BD401CDE
:100B900041F1000130BD70472DE9FF4F0C461E4664
:100BA0004FF0FF378BB0D2E90001DDF860800A908A
:100BB0008A46C1F30A5505B93D46002108464FF063
:100BC0000000BAF1000F00F4400005DA00EB8000ED
:100BD0004FF4400101EA50004FEA9059B9F1010F7A
:100BE00000DDB9460A9850EA4A000ED044F610508B
:100BF000A5F2FF3545432F14B8F1000F1ED0754202
:100C0000291E1EDDC9F100021CE0B8F1010F4FF0F2
:100C1000000001D0302103E0F24305E02154401CE4
:100C2000B042FBDB30460022002121540B99C1F871
:100C30000880C1E900200FB0BDE8F08FBD1B6D1C1E
:100C4000DEE74A4600DA694206A800F073FA06AB0E
:100C500093E8070003AB83E8070050460A9900F0C9
:100C600021FB8DE80700A0F500501F380090039885
:100C7000002D09DD42F21F014A46084403A90390F2
:100C8000684600F080FD08E0A0F500504A461F3895
:100C900003A90390684600F08AFD8DE80700000470
:100CA000000C03D04FF0FF30410800E01046B8F1CF
:100CB000000F03D00022009215461EE0751E05D4D9
:100CC000FFF724FF303262556D1EF9D5B34601227D
:100CD000084302D000227F1C04E02078302801D194
:100CE00000227F1E002A099786D01DE0112D07DA09
:100CF000FFF70CFF303262556D1C50EA0102F5D14E
:100D0000084302D00098C8B10EE00021681E05E03B
:100D1000235C625C63542254401E491C8142F7DB11
:100D2000AB46A81B401E0990002004F80B000B984E
:100D3000099AC0F80880C0E9002B7CE711264FF023
:100D4000000859E72DE9F04F88460446D21D22F0ED
:100D5000070191B0D1E90001CDE90A0102F08AFC56
:100D600002460B98C00F01D02D2007E020688107B4
:100D700001D52B2002E0202101EAC000032A0990BE
:100D800001D0072A05DB03464146204600F092F9D0
:100D90000BE12078800601D5E06900E00620B8F17B
:100DA000650F814606D0B8F1660F18D0B8F1670F0D
:100DB00070D131E00020B9F1110F009001DB112357
:100DC00001E009F101030AAA01A90CA8FFF7E4FE5A
:100DD000DDE90C70002609F10105834647E001209A
:100DE0004B4600904FF000470AAA01A90CA8FFF754
:100DF000D3FEDDE90DB00C995D46002610B909F16E
:100E000001000D18B9EB050003D4C0F1FF3609F15C
:100E10000105A5EB09002BE0B9F1010F01DA4FF054
:100E200001090020B9F1110F0090484601DD11239E
:100E300000E003460AAA01A90CA8FFF7ADFEDDE910
:100E40000C704D4600268346207800070AD4AB4537
:100E500000DA5D4601A8012D04DD411911F8011CDD
:100E6000302907D04F4502DA17F1040F04DA0120C8
:100E700082460FE06D1EEEE7002F02DCED1B3E44C4
:100E800003E0781CA84200DD7D1CB81B00F1010ABC
:100E90004FF000472078000703D4AA4501DB4FF04C
:100EA000FF3A0021B7F1004F0DF143088DF84310D0
:100EB00024D002202B23002F01DA7F422D230A2188
:100EC000021EA0F1010000DC5FB197FBF1FC97FB73
:100ED000F1F201FB1C7C17460CF1300C08F801CD37
:100EE000EEE7A8F1010003702188090501D545212D
:100EF00000E06521A0F1010800F8011C09980FA984
:100F0000A1EB0807FF1D00B10120411901EBEA70B8
:100F1000A1693844081A401EA0612078C00602D496
:100F20002046FFF71FFA099828B1D4E9012190471C
:100F3000206A401C20622078C00622D52046FFF798
:100F400011FA1EE0002E04DBB34502DD01A8805D2E
:100F500000E03020D4E901219047206A401C206243
:100F6000761CAAF101005FEA000A0AD100F09EF89F
:100F7000C0680168405CD4E901219047206A401CA8
:100F80002062281EA5F10105DCDC07E0D4E901217F
:100F900018F8010B9047206A401C2062381EA7F108
:100FA0000107F3DC2046FFF7F3F9032011B043E615
:100FB00010B5436913B1AFF3008001E0FFF7C2FB46
:100FC000012010BD127800F124010A7000224A703D
:100FD0000122EDE711684FF0FF32E9E710B54369F0
:100FE00013B1AFF3008001E0FFF772FC012010BDE8
:100FF000128800F1240182840022C2840122EDE7DC
:1010000011684FF0FF32E9E7007B00F08000704785
:1010100070B516460C46054600F040F8036893F894
:101020000101012806D0FF2C0FD8185D68B10120FE
:101030002C7070BDD3F807013246214603F2071326
:1010400003442846BDE8704018474FF0FF3070BD9C
:10105000754600F0E3F8AE4605006946534620F0B9
:101060000700854618B020B5FFF734F9BDE82040E9
:101070004FF000064FF000074FF000084FF0000B54
:1010800021F00701AC46ACE8C009ACE8C009ACE807
:10109000C009ACE8C0098D467047000010B500F0EB
:1010A00005F8001D10BD00BF053D00000048704759
:1010B000286000202DE9F0411F4604460326016800
:1010C000072A01F4006004DB08B116A505E016A5A7
:1010D00003E008B115A500E015A521F0100020607F
:1010E000A069C01EA0610FB1401EA0612046FFF79D
:1010F00039F94FB1D4E9012138469047206A401CA4
:101100002062C01C206206E0206AFAE7D4E90121CF
:1011100015F8010B9047761EF8D22046FFF738F9F4
:10112000BDE8F0814E414E006E616E00494E4600B2
:10113000696E66002DE9F047814616468AB033484D
:1011400078440DC88DE80D0030487844801C03AC0D
:101150000DC884E80D0041F69B300844372190FB10
:10116000F1F290FBF1F5A5F1800501FB12041B3CA7
:1011700002D56442012000E00020DFF890A0804604
:101180000027FA44AAF1BE0A0DE0E00709D0324672
:10119000684607EB47010AEB810100F008FB8DE888
:1011A000070064107F1C002CEFD1184F7F44AC3F28
:1011B00018E0E80714D007EB04100DF1180A90E8C6
:1011C0000E008AE80E00C068F04201D1981908901C
:1011D000324606A903A800F0EAFA03AB83E8070049
:1011E0006D10641C002DE4D132466946B8F1000F41
:1011F00003A802D000F0C7FA01E000F0D8FAC9E96C
:101200000001C9F808200AB0BDE8F087504E000080
:101210000446AFF300802046FFF747F800487047C8
:10122000086000204FF0013C50F8042B51F8043BBB
:101230009A4221D1A2EB0C03934313EACC1317D1AA
:1012400050F8042B51F8043B9A4215D1A2EB0C0341
:10125000934313EACC130BD150F8042B51F8043B01
:101260009A4209D1A2EB0C03934313EACC13DBD0CF
:101270004FF00000704700BFD01A01BAB1FA81F1F7
:1012800001F0180122FA01F0CB40C1F12001DBB2DC
:10129000C0B2C01A2CFA01F3D11A914311EAC3115A
:1012A000E6D170475FEA400C08BF91F0000F4FEAAB
:1012B0008C234FEAC12243EA51514FEA1C5018BF18
:1012C00000F5F0404FEA300018BF41F000415FEAFE
:1012D0006C5C00F02980BCF1FF3F08BF40F080400B
:1012E0007047130C06BF12044FF0100C4FF0000CA7
:1012F000130E04BF12020CF1080C130F04BF1201ED
:101300000CF1040C930F04BF92000CF1020CD30FEC
:1013100004BF52000CF1010C11464FF00002A0F185
:101320001F00A0EB0C00704711F0004F08BF704782
:1013300031F000413FF4D5AF0B0C06BF09044FF06C
:10134000100C4FF0000C0B0E04BF09020CF1080C3E
:101350000B0F04BF09010CF1040C8B0F04BF8900B3
:101360000CF1020CCB0F04BF49000CF1010CCCF1C5
:101370002003A0EB0C0022FA03F302FA0CF241EA7C
:10138000030100F10100704720F07F4C80EA030068
:1013900023F07F47ACEB070303F57C5300F00040DC
:1013A00003F1FF032DE980494FEA154B09B44FEAD9
:1013B000144325EA0B4E24EA03480FF2042606EBF9
:1013C000132749083E785FEA320203FB0667C7F538
:1013D000000707FB06F64FEA54374FEAD64606F1F8
:1013E000020607FB066CCCF1005C4FEA1C472CEAB6
:1013F000074C07FB06F40CFB06F504EB15464FEA19
:10140000961634BF00204FF000404FEAD13706FB5C
:1014100007FC4FEA1C4C0CFB0BF7D21B03FB0CF731
:1014200061EB07010CFB0EF7B0EB074072EB1742C4
:101430000CFB08F734BFA2EB0742B2EB074261EBAB
:1014400017414FEA0C444FEA910706FB07FC4FEAAD
:101450001C4C0CFB0BF7B0EBC74072EB573203FB95
:101460000CF734BFA2EBC742B2EBC74261EB573176
:101470000CFB0EF7B0EBC70072EB57720CFB08F7D2
:1014800034BFA2EBC702B2EBC70261EB5771039FF7
:101490004FEA816141EA921104EBCC044FEAD13763
:1014A0004FEA826206FB07FC42EA90124FEA806034
:1014B0004FEA1C4C0CFB0BF7D21B03FB0CF761EB48
:1014C00007010CFB0EF7B0EB074072EB17420CFB69
:1014D00008F734BFA2EB0742B2EB074261EB1741BA
:1014E0004FEA8C554FEA910704EB9C2406FB07FC5E
:1014F0004FEA1C4C0CFB0BF7B0EBC74072EB5732BA
:1015000003FB0CF734BFA2EBC742B2EBC74261EB5F
:1015100057310CFB0EF7B0EBC70072EB57720CFBA8
:1015200008F734BFA2EBC702B2EBC70261EB5771F9
:1015300015EB4C254FEA816141EA92114FEA826234
:101540004FEAD13742EA901206FB07FC44F100044F
:101550004FEA80604FEA1C4C0CFB0BF7D21B03FBDD
:101560000CF761EB07010CFB0EF7B0EB074072EBD9
:1015700017420CFB08F734BFA2EB0742B2EB07425D
:1015800061EB174115EB1C154FEA813141EA92419D
:101590004FEA823242EA90424FEA80304FEA0C76BC
:1015A00044F1000448EA03434EEA0B484FF0000EB2
:1015B000B2EB080C71EB030724BF624639464EEBD1
:1015C0000E0E4FF0000B0018524149414BEB0B0B34
:1015D000B2EB080C71EB03077BF1000B24BF6246F2
:1015E00039464EEB0E0E4FF0000B001852414941A8
:1015F0004BEB0B0BB2EB080C71EB03077BF1000B11
:1016000024BF624639464EEB0E0E51EA020718BF60
:1016100046F0010616EB0E7655F1000254F100017A
:1016200003D5BDE88901BDE80088BDE88901BDE8B2
:101630000048B619524141EB0101A3F10103704783
:1016400080807F7E7D7C7B7A7978777676757473FF
:10165000727171706F6E6E6D6C6C6B6A6A696868BE
:10166000676666656464636362616160605F5F5E54
:101670005E5D5D5C5C5B5B5A5A59595858575756CA
:10168000565555555454535352525251515050502F
:101690004F4F4F4E4E4D4D4D4C4C4C4B4B4B4A4A81
:1016A0004A494949484848474747474646464545C5
:1016B00045444444444343434342424242414141FE
:1016C000002B26D4770021D01CB54FEA370703B48E
:1016D0004FF010004FF010014FF000000FBCBDE8BC
:1016E00010400BF1010BBBF1010F08BF5FEA1707B8
:1016F00022BF12F1010211F101014FF0004143F14B
:10170000000300F0004043EA00007047F9D3570897
:10171000DAE746EA064613F1400F4FEA16461FDDA8
:1017200013F1200FDFBF16430A46002120335B422E
:10173000C8D0C3F1200746EA064602FA07F74FEA87
:10174000164646EA0706C3F1200722FA03F201FA19
:1017500007F721FA03F14FF0000342EA0702B1E76D
:1017600046EA020646EA06464FEA164646EA0106F9
:10177000BCBF46EA0646360C4FF000034FF00002AD
:101780004FF000019EE72DE9C048934630B491E840
:10179000380007C831EA400C48BF34EA430C03D58F
:1017A000FFF7F2FDFFF78CFFF0BCBDE800882DE9E4
:1017B000C048934630B491E8380007C810F0804F15
:1017C00008BF13F0804F03D100F005F8FFF778FF52
:1017D000F0BCBDE8008820F07F4780EA030023F0DA
:1017E0007F4C07EB0C03A3F57C5300F00040A3F102
:1017F000FE0392F0000F00F0B38095F0000F00F0B0
:1018000077802DE901494FEA11404FEA144621EA59
:10181000004800FB06FC24EA064708FB06F607FB27
:1018200008F800FB07F718EB06484CEB164C4FEA9C
:10183000124B18EB07484FEA15464CEB174022EACB
:101840000B4E0BFB06FC25EA06470EFB06F607FBD4
:101850000EFE0BFB07F71EEB064E4CEB164C4FF043
:1018600000061EEB074E4CEB174B18EB0B0840F134
:10187000000018EB0E0B58EB000840F100008F1A27
:101880004FF000013CBFC943661B14BFB5EB040C0D
:1018900000213CBFC943F61B4FEA17444EEA8E0EA7
:1018A00027EA04454FEA1C4704FB07622CEA074C71
:1018B00005FB07F70CFB05F604FB0CFC16EB0746D3
:1018C00042EB174216EB0C4642EB1C421BEB0606A2
:1018D00058EB0202414146EA9E0601D5BDE8018966
:1018E000B619524141EB0101A3F10103BDE80189A1
:1018F0004FEA14454FEA114724EA054621EA074C0E
:1019000005FB07F406FB07F70CFB06F105FB0CFCD7
:1019100011EB074144EB17444FEA124711EB0C411E
:1019200044EB1C4422EA074C05FB07F206FB07F7D1
:101930000CFB06F605FB0CFC16EB074642EB1742C8
:1019400016EB0C4642EB1C456A1854F1000148BFE7
:101950007047B619524141EB0101A3F101037047F1
:1019600095F0000F37D04FEA11424FEA144721EAB1
:10197000024624EA074C02FB07F106FB07F70CFBC3
:1019800006F402FB0CFC14EB074441EB17414FEA51
:10199000154714EB0C4441EB1C4125EA074C02FBB4
:1019A00007F506FB07F70CFB06F602FB0CFC16EB33
:1019B000074645EB174516EB0C4645EB1C42121942
:1019C00051F1000148BF7047B619524141EB010186
:1019D000A3F1010370474FEA14454FEA114724EA87
:1019E000054621EA074C05FB07F106FB07F70CFB50
:1019F00006F24FF0000605FB0CFC12EB074241EB30
:101A0000174112EB0C4251EB1C4148BF7047921832
:101A100041EB0101A3F10103704721B1826842F05B
:101A20000102826003E0826822F001028260704756
:101A300010B504461248844208D10121401500F037
:101A400001FD0021601500F0FDFC17E00D48844207
:101A500008D10121001500F0F5FC0021201500F04F
:101A6000F1FC0BE00848844208D10121C80300F0D2
:101A7000E9FC00214FF4004000F0E4FC10BD000040
:101A80000024014000280140003C014001460020A4
:101A90008A6802F004020AB1012000E000207047C9
:101AA0000146C86C80B270470246002013680B40A4
:101AB0000BB1012000E000207047014600208A6839
:101AC00002F008020AB1012000E000207047000087
:101AD00030B502460020002350680F4C20400D799D
:101AE0000C6844EA05242043506090680B4C204069
:101AF000D1E902542C434D7944EA450420439060D7
:101B0000D06A20F470000C7C641EE4B2234340EAE7
:101B10000350D06230BD0000FFFEF0FFFDF7F1FF83
:101B2000F0B504460D4600200021092D11DDE068C6
:101B3000A5F10A0606EB4607072606FA07F18843D1
:101B4000A5F10A0606EB460603FA06F10843E06033
:101B50000CE0206905EB4507072606FA07F18843E4
:101B600005EB450603FA06F108432061072A0FDA60
:101B7000606B561E06EB86071F2606FA07F18843A0
:101B8000561E06EB860605FA06F10843606322E05E
:101B90000D2A0FDA206BD61F06EB86071F2606FAE2
:101BA00007F18843D61F06EB860605FA06F10843BF
:101BB000206310E0E06AA2F10D0606EB86071F26FF
:101BC00006FA07F18843A2F10D0606EB860605FA30
:101BD00006F10843E062F0BD816841F008018160D0
:101BE000704721B1826842F4A002826003E08268FB
:101BF00022F4A00282607047816841F00401816094
:101C00007047000000B587B001214FF4017000F06B
:101C100009FC4FF4004000F0D9FB0220ADF80400AD
:101C200000208DF8070001A91C4800F010F90120E0
:101C3000ADF8040000208DF8070001A9174800F056
:101C400006F91748FFF7F4FE002002908DF80C000B
:101C50008DF80D004FF460200490002005900220C4
:101C60008DF8180002A90E48FFF732FF01210C4839
:101C7000FFF7D3FE0A48FFF7AFFF00BF0848FFF7A2
:101C80001CFF0028FAD10648FFF7B6FF00BF044842
:101C9000FFF7FCFE0028FAD107B000BD00080140A4
:101CA0000024014010B5012000F0DCFB002000F012
:101CB000D9FB10BD00BFFEE77047000010B5002043
:101CC000114908608021114800F04CF940210F486B
:101CD00000F048F90E4801780EA0FEF721FB3220F3
:101CE00002F026FB02F028FF0121124880F82F1C89
:101CF00090F82E0C401CC1B20E4880F82E1C00201B
:101D00000D49088010BD0000680000200008014057
:101D1000240000207346756E6374696F6E436F64B0
:101D2000652E4572726F724D6F64653D25640D0AB4
:101D300000000000604100207C00002030B5044617
:101D400004254FF4302000F06FF80546042D17D11C
:101D50000C48006940F002000A49086108464461E5
:101D6000006940F0400008614FF4302000F05CF85A
:101D700005460448006941F6FD71084001490861C3
:101D8000284630BD0020024004200B49C96801F0FC
:101D9000010109B101200EE00749C96801F0040101
:101DA00009B1022007E00449C96801F0100109B136
:101DB000032000E00420704700200240034800692F
:101DC00040F0800001490861704700000020024097
:101DD00070B504460D460426F00200F025F80646CC
:101DE000042E11D10948006940F00100074908613B
:101DF0002580F00200F018F806460448006941F614
:101E0000FE71084001490861304670BD0020024063
:101E1000024803494860034848607047230167450A
:101E200000200240AB89EFCD00B502460423FFF746
:101E3000ABFF034603E0FFF7A7FF0346521E012B4B
:101E400001D1002AF7D102B90523184600BD2DE9BA
:101E5000F041024600250026002000230024002730
:101E600091F803C00CF00F0591F803C00CF0100CB2
:101E7000BCF1000F03D091F802C04CEA050591F8BF
:101E800000C0BCF1000F31D0146800202BE04FF0EF
:101E9000010C0CFA00F3B1F800C00CEA03069E42F4
:101EA00020D183004FF00F0C0CFA03F7BC4305FA66
:101EB00003FC4CEA040491F803C0BCF1280F06D1DE
:101EC0004FF0010C0CFA00FCC2F814C00AE091F8C3
:101ED00003C0BCF1480F05D14FF0010C0CFA00FC17
:101EE000C2F810C0401C0828D1D31460B1F800C05B
:101EF000BCF1FF0F34DD546800202EE000F1080C27
:101F00004FF0010808FA0CF3B1F800C00CEA030620
:101F10009E4221D183004FF00F0C0CFA03F7BC4313
:101F200005FA03FC4CEA040491F803C0BCF1280F45
:101F300005D100F1080C08FA0CF8C2F8148091F8E9
:101F400003C0BCF1480F07D100F1080C4FF00108A5
:101F500008FA0CF8C2F81080401C0828CED3546050
:101F6000BDE8F081416170470161704710B50446DA
:101F70000023012221460948FFF7D2FD012107482D
:101F8000FFF72FFE00BF02210448FFF78DFD002858
:101F9000F9D00248FFF784FD10BD00000024014085
:101FA0002DE9F04107460C460025002608E038469A
:101FB000FFF7DCFF0544322002F0E0F9701CC6B2E6
:101FC000A642F4DBB5FBF4F080B2BDE8F08100007E
:101FD000002000210DE0322909DD084A32F81120E5
:101FE000824204DD054A32F81100054A11804A1C7C
:101FF00091B240F6B8329142EDDB7047700100209B
:102000003A0000202DE9F04700260027002507E0D0
:102010002A49681C31F8100021F81500681C85B2A7
:102020001E2DF5DB2648008803F082FD81462548F9
:102030000168484603F0CCFE804603F041FD1F498D
:10204000888700240BE01D4830F81400B04204DDFE
:102050001A4830F814601C480480601C84B21F2C9D
:10206000F1DB194800880F2826D11848008801287C
:1020700012DD1648008864280EDA10483E301349F5
:10208000098820F811601248C0880F3881B21148C1
:102090000E4A128820F812100C480088022806DB2D
:1020A0000A480088801E87B2384602F0E1FA0748E5
:1020B0000088401C05490880BDE8F087A048002042
:1020C00050000020780000203C0000203E0000204E
:1020D00060010020364B00200021074A11600749AB
:1020E000098801F4004131B1044908780021034A0C
:1020F0001180034A1154704790012242320100209E
:10210000785E002070B50A2601253848806940F0C5
:102110000400364988610846806940F010008861F3
:102120003348006820F47020314908600846006890
:1021300040F4002008602E480C30006840F0100089
:102140002B490C3108602B48006820F47020294985
:1021500008600846006840F4403008600846C068DF
:1021600040F01000C8604FF41651242001F0E2F84E
:1021700032E00120204908600A2002F0D9F81FA0AF
:1021800002F036FD00201F49C1F8900100240AE04A
:102190001D48008800F4004000B106E0052002F070
:1021A000C7F8601CC4B20A2CF2DB00BF16480088D6
:1021B00000F4004080B114480578002012490880DE
:1021C000042D09D1114800784F2805D10F484078D7
:1021D0004B2801D1002504E03000A6F10101CEB268
:1021E000C7D100BF06B90125284670BD00100240C6
:1021F00000080140001001409001224241540D0AA4
:10220000000000000000224232010020785E002021
:1022100000BFFEE70146CA1701EB92729210A1EBD4
:10222000820292B9642091FBF0F200FB121050B9C7
:102230004FF4C87091FBF0F200FB121008B90120B6
:1022400070470020FCE70120FAE70020F8E70000D3
:1022500008B50121042000F0E5F88020ADF8000069
:1022600010208DF8030003208DF802006946044811
:10227000FFF7EDFD80210248FFF774FE08BD000066
:10228000000801402DE9F0410746884614461D46E6
:10229000284600F033F8C5F1040007FA00F60F20D5
:1022A000284100EA0800064306F00F06E21704EB97
:1022B000D2625211920002F1E022D2F800212146AE
:1022C000E31704EBD3635B11A4EB431C012303FA74
:1022D0000CF31A432046E31704EBD3635B119B0016
:1022E00003F1E023C3F800210348005D40EA061033
:1022F00001490855BDE8F08100E400E001460723EC
:1023000023EA01021202054B18684FF6FF0318403A
:10231000034B18431043014B186070470CED00E06D
:102320000000FA0500BFFEE7704710B54FF4A0604B
:1023300000F03AF810BD000070B5002100230F2214
:10234000C47804B3154C246804F4E064C4F5E06474
:10235000210AC1F10403CA40447804FA03F18478E5
:102360001440214309010E4C0678A155047804F06D
:102370001F050124AC4005786D11AD0005F1E02585
:10238000C5F8004109E0047804F01F050124AC40C1
:10239000044D0678761145F8264070BD0CED00E03E
:1023A00000E400E080E100E002490143024A1160DC
:1023B000704700000000FA050CED00E001490862DA
:1023C0007047000000000E427047000001460020E8
:1023D000034A506820F440400843506070470000B2
:1023E0000010024029B1064AD2690243044BDA6167
:1023F00004E0034AD2698243014BDA61704700006E
:102400000010024029B1064A12690243044B1A61C6
:1024100004E0034A12698243014B1A6170470000CD
:102420000010024029B1064A92690243044B9A61A6
:1024300004E0034A92698243014B9A6170470000AD
:102440000010024029B1064AD2680243044BDA6008
:1024500004E0034AD2688243014BDA60704700000F
:1024600000100240014908607047000040044242E9
:1024700030B500210022002400232D4D6D6805F0A9
:102480000C0121B1042905D0082923D105E0294DEB
:10249000056022E0274D05601FE0254D6D6805F4BD
:1024A0007012234D6D6805F48034022505EB9242CD
:1024B0001CB9214D554305600BE01D4D6D6805F4B9
:1024C00000351DB11C4D5543056002E0194D5543C3
:1024D000056002E0174D056000BF00BF144D6D6838
:1024E00005F0F0010909154D6B5C0568DD4045609C
:1024F0000F4D6D6805F4E061090A104D6B5C45688D
:10250000DD4085600A4D6D6805F46051C90A0B4DC8
:102510006B5C4568DD40C560054D6D6805F4404164
:10252000890B074D6B5CC568B5FBF3F5056130BDE4
:102530000010024000127A0000093D003E01002018
:102540004E01002010B501460022002300204A1150
:10255000012A02D1094C236806E0022A02D1074C65
:10256000236A01E0054C636A01F01F0201249440D4
:102570001C400CB1012000E0002010BD0010024002
:1025800000210B4A11700A4A203A82F820100128D3
:1025900002D0042808D103E00121054A117004E0AB
:1025A0000521034A117000E000BF00BF7047000022
:1025B0002010024001490860704700003C0442427C
:1025C0000249096A0143014A116270470010024042
:1025D000024909888143014A11807047042800405C
:1025E0000348008840F0100001490880704700004F
:1025F00004280040034800884FF6EF710840014965
:10260000088070470428004070B50026002400258B
:1026100000F07AF806463848B6FBF0F437480088F0
:10262000A0423CD035490C8040F2B27510E02846FB
:10263000FFF7F0FD40B1B4F5B77F02D3A4F5B7744E
:1026400004E0681C85B206E0A4F26D14681C85B233
:10265000B4F5B67FEBD800BF29488580002516E089
:1026600027498888FFF7D6FD30B1012D04D11D2CF4
:1026700001D31D3C09E00CE02248405DA04203D894
:102680002048405D241A00E003E0681C85B21C2C41
:10269000E6D200BF681C1A498871601CC8711648D0
:1026A000B6FBF0F100FB11644FF46160B4FBF0F095
:1026B000134908704FF46160B4FBF0F100FB114066
:1026C0003C21B0FBF1F00E4948704FF46160B4FB5F
:1026D000F0F100FB11403C21B0FBF1F201FB1200D4
:1026E000074988700B46DA799979988800F028F8BC
:1026F00003490872002070BD805101007E00002057
:1027000090550020CA5E0008002103480188001F80
:10271000008841EA004070471C2800400146002024
:10272000064A12880A40D0B2044A121F12880A4090
:1027300012B108B1012000E00020704704280040D9
:10274000F0B503460C461546642093FBF0F0C6B284
:10275000642093FBF0F700FB1730C1B2132E02DDAB
:1027600001F16400C1B20846CF1701EB977701EB86
:10277000A707BAB2072092FBF0F700FB172082B23E
:102780005719601EDFF82CC01CF80000384482B2D4
:10279000CF1701EB9777BF10A1EB87071FB9032C69
:1027A00001DA501E82B2072092FBF0F700FB1720DF
:1027B000C0B2F0BDBE5E000810B50120FFF7AEFF4D
:1027C00008B1FFF721FF0220FFF7A8FFD8B10220D0
:1027D000FFF7FEFEFFF718FFFFF796FF0D49896828
:1027E0004418204600F0F4F800F01EF90A488378F7
:1027F0004278017809A0FDF793FD0BA0FDF790FD4D
:1028000003200C4948700520FFF7E2FE00F00CF9A8
:1028100010BD0000540100209055002025643A2589
:10282000643A25640D0A0000416C61726D204F4BC3
:10283000210D0A002400002029B1064A1288024313
:10284000044B1A8004E0034A12888243014B1A8029
:10285000704700000028004010B5002401214FF00F
:10286000C050FFF7BFFD0120FFF7A8FDFFF71AFAE0
:102870000120FFF785FE04E0601CC4B20A2001F0CD
:1028800057FD4120FFF75EFE0028F5D0FA2C01DB52
:10289000012010BD4FF48070FFF792FE0120FFF77A
:1028A00089FE00F0C1F800F0C9F801210220FFF70D
:1028B000C3FF00F0B9F801210846FFF7BDFF00F0A3
:1028C000B3F8FFF78DFE47F6FF7000F09DF800F0BB
:1028D000ABF8FFF78FFE00F004F8FFF795FE00203D
:1028E000D7E708B503208DF8000000208DF801001F
:1028F0008DF8020001208DF803006846FFF71CFDEB
:1029000008BD00002DE9F05F06460F469046994647
:10291000DDE90AAB002440F2B270864203DB40F6E8
:102920003300864202DD0120BDE8F09F40F2B2751F
:102930000AE02846FFF76EFC10B12148044401E08C
:1029400020480444681C85B2B542F2DB781EC7B249
:10295000002510E01C48405D40F2A321484304EBF1
:10296000C0143046FFF756FC18B1012D01D11748AD
:102970000444681C85B2BD42ECDBA8F1010040F2C2
:10298000A321484304EBC014C9EB4910C0EB092054
:1029900004EB0014CAEB0A1004EB80045C44012130
:1029A0004FF0C050FFF71EFD0120FFF707FD204646
:1029B00000F01CF800F038F8FFF726FE0020B3E71F
:1029C0000085E2018033E101CA5E00088051010008
:1029D00000B50246FFF704FE100C03490880091DEC
:1029E0000A80FFF707FE00BD2028004000B5024620
:1029F000FFF7F6FD100C03490880091D0A80FFF758
:102A0000F9FD00BD1828004000B50246FFF7E8FDBB
:102A1000C2F3034003490880091D0A80FFF7EAFD5D
:102A200000BD00000828004000BF0348008800F0F7
:102A300020000028F9D0704704280040074800888B
:102A40004FF6F77108400549088000BF0348008829
:102A500000F008000028F9D070470000042800406A
:102A600030B503460C461546002207E0184600F034
:102A700008F824F812009B1C501C82B2AA42F5DB15
:102A800030BD0146088870472DE9F05F80468A46D0
:102A90001746B8F1006F02D33348804501D3BDE833
:102AA000F09FFFF7B5F9A8F1006B4FEADB25CBF3F8
:102AB0004909C9F58064A74200DC3C464DE04FF06F
:102AC000006101EBC5204A142849FFF7C9FF002621
:102AD0000BE009EB0600254931F810004FF6FF71B5
:102AE000884200D003E0701C86B2A642F1DB00BF32
:102AF000A6421BDA4FF0006101EBC520FFF71EF97B
:102B0000002608E03AF8160006EB0901174A22F8F9
:102B10001100701C86B2A642F4DB4FF0006101EB9D
:102B2000C5204A14114900F023F804E0224651461A
:102B3000404600F01DF8A74200D10FE06D1C4FF099
:102B400000090AEB440AA044381B87B2B7F5806F2E
:102B500002DD4FF4806400E03C46B0E700BFFFF7C1
:102B60002DF900BF9BE70000000004089A550020E3
:102B70002DE9F04105460E461746002407E036F8D9
:102B800014102846FFF724F9AD1C601C84B2BC4227
:102B9000F5DBBDE8F081704710B500F001F810BD1D
:102BA0000CB50020019000903348006840F480305C
:102BB0003149086000BF3048006800F400300090E0
:102BC0000198401C0190009818B90198B0F5A06FC9
:102BD000F1D12948006800F4003010B101200090C4
:102BE00001E0002000900098012843D123480068AC
:102BF00040F01000214908600846006820F00300FA
:102C000008600846006840F0020008601A48406802
:102C1000194948600846406848600846406840F4E2
:102C2000806048600846406820F47C104860084690
:102C3000406840F4E81048600846006840F0807042
:102C4000086000BF0C48006800F000700028F9D050
:102C50000948406820F0030007494860084640687A
:102C600040F00200486000BF0348406800F00C00DC
:102C70000828F9D10CBD00000010024000200240DD
:102C8000042808D14FF0E021096941F004014FF018
:102C9000E022116107E04FF0E021096921F0040111
:102CA0004FF0E022116170477047000010B51348E3
:102CB000006840F00100114908600846406810496A
:102CC00008400E494860084600680E4908400B4914
:102CD00008600846006820F48020086008464068C4
:102CE00020F4FE0048604FF41F008860FFF754FF97
:102CF0004FF000600449086010BD00000010024061
:102D00000000FFF8FFFFF6FE08ED00E010B501211E
:102D1000044800F0A5F818B10121024800F08EF82F
:102D200010BD0000000400407FB505460C4601219F
:102D30000220FFF757FBADF80850ADF80440002023
:102D4000ADF80A00ADF8060001A90E4800F0A2F89F
:102D5000012211460B4800F094F81D208DF8000068
:102D600000208DF8010003208DF8020001208DF86D
:102D700003006846FFF7E0FA0121024800F061F81D
:102D80007FBD00000004004000B50A48008800F044
:102D9000010070B10848008840F4004006490880EE
:102DA0000448008820F0010002490880002000F05B
:102DB0002DF800BD100800403201002070B5054616
:102DC0000C461048C06940F004000E49C8610E4826
:102DD0000580001F04800C482038008840F0010066
:102DE00009492039088008482C38008840F0010043
:102DF00005492C39088002231E2203210120FFF7F8
:102E000041FA70BD001002402C08004058B100216A
:102E1000094A118008492439098841F00101064A0C
:102E2000243A118007E004492439098821F001017E
:102E3000014A243A1180704724080040CA430282A4
:102E4000704721B1028842F00102028004E002884A
:102E50004FF6FE731A40028070470146888C704717
:102E600030B50246002000230024158A05EA01033C
:102E7000958905EA010413B10CB1012000E000209E
:102E800030BD1AB183890B43838102E083898B4370
:102E900083817047002202881D4B98420ED01D4B43
:102EA00098420BD0B0F1804F08D01B4B984205D010
:102EB0001A4B984202D01A4B984204D14FF68F73A6
:102EC0001A404B881A43174B984207D0164B98422A
:102ED00004D04FF6FF431A40CB881A4302808B88F8
:102EE00083850B8803850A4B98420BD0094B984287
:102EF00008D00E4B984205D00D4B984202D00D4B96
:102F0000984201D10B7A0386012383827047000027
:102F1000002C014000340140000400400008004043
:102F2000000C004000100040001400400040014030
:102F3000004401400048014070B504460E46154665
:102F40001148406940F001000F494861052001F037
:102F500015FAA660E56000202060206840F01000AF
:102F600020602068206020682060206840F0800099
:102F700020602068206020682060206840F4805035
:102F800020602068206070BD00100240026822F0BE
:102F9000010202604160026842F001020260704773
:102FA00010B540F225511D4800F086FA10B31B48B9
:102FB00000F03EFBC4B21A48008800F40040C8B9D3
:102FC0001748008800F4804060B10A2C03D000202C
:102FD0001349088020E01248008840F4004010495E
:102FE000088019E00D2C06D10D48008840F480407F
:102FF0000B49088010E00A480088C0F30D00094919
:103000000C5407480088401C054908800846008881
:10301000C72801DD0020088010BD000000380140F5
:103020003C010020405F002070B586B0142524E0EC
:103030009E48008800F02000F8B19C48001D0088E0
:10304000C4B29B480088C82811DA0020994908803A
:103050009748008810B90120FFF7D8FE94480188EE
:103060000088401C924A10809348445405E09048E0
:10307000008840F400408E4908802800A5F1010135
:103080008DB2D5D18D480068FDF7D2FA064632469A
:103090008A4801688848FDF79FFA78B90220884974
:1030A0004870002088708749088087A001F0A0FD43
:1030B0001E218148FDF709FB06B070BD83480168F9
:1030C0007D48FDF777FA50B101207D4948709F2077
:1030D0007F4908701E217848FDF7F7FAECE77D4834
:1030E00001687548FDF766FA70B1012074494870AF
:1030F00040217948FEF738FF9F20754908701E214E
:103100006D48FDF7E2FAD7E774480068FDF790FADA
:1031100006463246714801686748FDF75DFA78B99E
:1031200002206749487001208870002065490880A6
:103130006BA001F05DFD1E215F48FDF7C6FABBE7FD
:10314000684801685C48FDF735FA18B303205C490C
:10315000487000205B49088040215F48FEF704FF6B
:103160005548407830385449097830390A2202FBF2
:1031700001005D49C8805048C07830384E49897890
:10318000303902FB0100584988601E214A48FDF78A
:103190009CFA91E7554801684748FDF70BFA48B19A
:1031A000032047494870002088701E214248FDF7DF
:1031B0008CFA81E74E4801683F48FDF7FBF900288B
:1031C00042D0FEF725FE32E010224A494A48006804
:1031D000FFF746FC4748C08946498989454A5289D4
:1031E000444B1B89CDE90132CDE903104148C08829
:1031F0000090404883884288018840A001F0F8FC94
:103200003D48006820303C490860322001F090F8C9
:1032100042480088401C41490880374800680068DF
:10322000401C18B108460088642800D100E0CBE7B4
:1032300000BF00203949088039482F4908601E2105
:103240001D48FDF742FA37E736480068FDF7F0F908
:1032500006463246334801681748FDF7BDF980B984
:10326000052017494870144801F036FD0020154923
:1032700008802DA001F0BCFC1E210F48FDF725FAA7
:103280001AE72B480068FDF7D3F90646324628486E
:1032900001680948FDF7A0F930B9042008494870D1
:1032A00021A001F0A5FC07E700BF05E700440040AE
:1032B0003201002024080040785E002080000020B9
:1032C000240000207C0000204F4B3100D000002063
:1032D000600100200001002000080140880000205B
:1032E0004F4B3200A800002054010020B000002005
:1032F000F0000020685E0020280100200A256425D7
:103300003032642530326425303264253032642511
:1033100030336425303364253033640024010020C9
:1033200000000308C80000204F4B0D0A00000000F9
:10333000B800002070B505460C462B48806940F067
:103340000400294988612948006820F47F40274902
:1033500008600846006840F40B4008602248C069D5
:1033600040F400302049C8610846006940F400304C
:1033700008610846006920F4003008611C48684371
:10338000B0FBF4F01B490880081D008842F20C01D4
:1033900008431849091D0880802016490C3108800F
:1033A000154A1449091F1548FFF7C6FD1148001DAD
:1033B000008840F480700F49091D08800846008885
:1033C00040F0200008800223262203211846FEF741
:1033D00059FF41F61F41C720FFF7F0FC00200849C4
:1033E0000880FFF713FD70BD001002400008014087
:1033F00040420F0008440040A05D002080000240D1
:103400003201002021B1828942F40052828104E01D
:1034100082894DF6FF731A408281704710B50446C9
:103420002048844209D101218803FFF70BF80021CD
:103430004FF48040FFF706F832E01B48844209D180
:1034400001214804FEF7DEFF00214FF40030FEF7B3
:10345000D9FF25E01548844209D101218804FEF7EF
:10346000D1FF00214FF48020FEF7CCFF18E0104878
:10347000844209D10121C804FEF7C4FF00214FF4A2
:103480000020FEF7BFFF0BE00A48844208D101216B
:103490000805FEF7B7FF00214FF48010FEF7B2FFDA
:1034A00010BD0000003801400044004000480040CA
:1034B000004C00400050004070B50246002400233C
:1034C0000025002040F66A16B14200D100BFC1F3CA
:1034D000421501F01F03012606FA03F3012D02D164
:1034E0009689334006E0022D02D1168A334001E06E
:1034F000968A33400C12012606FA04F416883440EA
:1035000013B10CB1012000E0002070BDF0B50346FE
:10351000002400260025002040F66A17B94200D199
:1035200000BF1846C1F3421401F01F06012707FA35
:1035300006F5012C01D10C3004E0022C01D1103031
:1035400000E014301AB107682F43076002E00768F3
:10355000AF430760F0BD00002DE9F04786B0054697
:103560000E460024A24600BFA1460027B08900B144
:1035700000BF2F462C8A4CF6FF700440F0880443AD
:103580002C82AC894EF6F3100440B0883189084390
:10359000718908430443AC81AC8A4FF6FF40044074
:1035A000B0890443AC8201A8FEF762FF1F4887423E
:1035B00002D1DDF810A001E0DDF80CA0A88900F42C
:1035C000004040B10AEBCA0000EB0A103168490024
:1035D000B0FBF1F807E00AEBCA0000EB0A10316813
:1035E0008900B0FBF1F86420B8FBF0F00401200979
:1035F000642101FB1089A88900F4004040B1322009
:1036000000EBC900B0FBF1F000F00700044308E054
:10361000322000EB09106421B0FBF1F000F00F0044
:1036200004432C8106B0BDE8F0870000003801405B
:1036300001468888C0F30800704700BFFEE700001D
:1036400008B501210420FEF7EDFE4020ADF8000092
:1036500010208DF8030003208DF80200694604480D
:10366000FEF7F5FB40210248FEF77EFC08BD000096
:1036700000080140490050EAC12018BF04204A0D4B
:1036800018BF40F0010040F2FF72B2EB515F08BF7B
:1036900040F00200012808BF0520704730380A2892
:1036A00001D20120704700207047014600BF7047DB
:1036B00010B5CCB00446C8218848FCF7E4FFC82107
:1036C0008748FCF7E0FF642133A8FCF7FEFF85493B
:1036D000012208686946FFF7C3F9BDF8002082A1FE
:1036E00033A8FCF729FE33A97C48FCF7C0FF64210E
:1036F00033A8FCF7EAFF7D4802787DA133A8FCF7E8
:103700001BFE33A97548FCF7B2FF642133A8FCF710
:10371000DCFF7948828874A133A8FCF70DFE33A939
:103720006E48FCF7A4FF75A16C48FCF7A0FF64216C
:1037300033A8FCF7CAFF704882796DA133A8FCF763
:10374000FBFD33A96548FCF792FF6CA16348FCF7C9
:103750008EFF642133A8FCF7B8FF6748C27964A1E3
:1037600033A8FCF7E9FD33A95C48FCF780FF64A1AE
:103770005A48FCF77CFF642133A8FCF7A6FF5E489B
:1037800002785BA133A8FCF7D7FD33A95348FCF7B7
:103790006EFF5CA15148FCF76AFF642133A8FCF777
:1037A00094FF5548427852A133A8FCF7C5FD33A9D0
:1037B0004A48FCF75CFF53A14848FCF758FF6421D6
:1037C00033A8FCF782FF4C48827849A133A8FCF764
:1037D000B3FD33A94148FCF74AFF49A13F48FCF734
:1037E00046FF642133A8FCF770FF002C45D1BDF8DB
:1037F00000203DA133A8FCF79FFD33A93848FCF712
:1038000036FF3A4802783AA133A8FCF795FD33A970
:103810003348FCF72CFF642133A8FCF756FF3A48E5
:1038200002783AA133A8FCF787FD33A92C48FCF7AE
:103830001EFF33A12A48FCF71AFF642133A8FCF7C6
:1038400044FF3148827931A133A8FCF775FD33A9D3
:103850002348FCF70CFF2AA12148FCF708FF64214C
:1038600033A8FCF732FF2848827828A133A8FCF758
:1038700063FD33A91A48FCF7FAFEC82101A8FCF73A
:1038800024FF1849142288681449FFF7FDF81549E8
:103890001422886801A9FFF7E3F812488068143001
:1038A00010498860C82101A8FCF70FFF0D491122BB
:1038B00088680B49FFF7E8F80A491122886801A9CE
:1038C000FFF7CEF807488068113006498860C821A4
:1038D00001A8FCF7FAFE4CB010BD0000A851002072
:1038E00070520020140000202564000060010020B8
:1038F0002530326400000000905500202D000000AB
:103900003B0000003A00000028000020253033640E
:10391000000000002DE9F04FADF61C4D4FF0000BFC
:103920000020CDF8140C4FF496610DF26470FCF792
:10393000CCFE002016908021FE48FEF715FB00F01B
:103940006FFBFD49FD48006802F006FA09D8012026
:10395000FB490870FEF7B2F901200DF61C4DBDE8D9
:10396000F08FFEF735FBF7490880FEF74BFBF64872
:1039700000881690F548C08840F6B831884206DBCA
:103980000220EF490870FEF799F90120E5E7F048B9
:103990000088401EEF4931F81000EB490988884241
:1039A0007DDDEB480088401EEB4931F8100000280F
:1039B000F6DDE448008801F091FC80464FF0333298
:1039C000E64B01F0DBFC04460D46E1490988491E3F
:1039D000E14A32F8110001F081FC064622462B46EE
:1039E00001F090FC5BD8DE49D448006802F0B4F9DD
:1039F00055D2DCA0FCF794FC8021CE48FEF7B2FA49
:103A00004021CC48FEF7AEFAD1480078801F00F084
:103A1000FF0A17E0D54850F82A10584601F004FF75
:103A20008346D349584601F06DFFC849C86008462F
:103A3000C168D04801F066FFCF4908600AF1010073
:103A400000F0FF0AC2480088C01E5045E2DC4FF07B
:103A5000000A45E0C04931F81A20AAF10101BE4B25
:103A600033F81110501A00EBD0714A10AAF101017D
:103A700033F8111011448AB24FEA4A01491EADAB26
:103A800023F81120B34931F81A20AAF10101B14BF2
:103A900033F81110501A00EBD0714A1000E057E2D1
:103AA000AAF1010133F8111011448AB24FEA4A0118
:103AB000491E17AB23F81120A74830F81A004FEA27
:103AC0004A01ADAA22F81100A24830F81A004FEAC4
:103AD0004A0117AA22F811000AF1010000F0FF0ABA
:103AE0009B4800888245B5DB4FF0000A0FE0ADA887
:103AF00030F81A00984921F81A0017A830F81A006F
:103B0000944921F81A000AF1010000F0FF0A9048D8
:103B100000884000401E5045E9DC8D490988491E57
:103B20008C4A32F811208A490988891E894B33F85A
:103B30001110501A01F0E4FFCDF8140C84480078FD
:103B40004000401E00F0FF0A29E0AAF10101814A6D
:103B500032F8110001F0ECFF0546DDF8141C01F00D
:103B600063FE044601F0ACFF7A4921F81A00784858
:103B700000884000801E784931F810007449098897
:103B800090FBF1F1AAF10100734A32F81000401ADB
:103B9000114621F81A000AF1010000F0FF0A6C48F2
:103BA000008800EB4000401E5045CEDC6849098883
:103BB00001EB4101891E674A32F8110001F0B8FF9C
:103BC0000546DDF8141C01F02FFE044601F078FFD5
:103BD00081B25F48008800EB4000401E5D4A22F839
:103BE000101000215A48008800EB4000401E5A4A3D
:103BF00022F810108A461BE0574830F81A000DF2E0
:103C00000C5121F81A00544931F81A0001F066FBF2
:103C100006460022594B01F0B1FB044601F0DCF8E6
:103C20000DF2647141F82A000AF1010000F0FF0A68
:103C30004748008800EB40005045DDDC4FF0000AAB
:103C4000F5E0AAF103010DF20C5232F8110001F077
:103C500045FB06464A4A4B4B01F090FB044601F0F7
:103C6000BBF8804601F0B4FDCDE91201AAF10201D2
:103C70000DF20C5232F8110001F030FB0646424AB8
:103C8000424B01F07BFB044601F0A6F8804601F0B0
:103C90009FFDCDE90E01AAF101010DF20C5232F89F
:103CA000110001F01BFB0646374A384B01F066FB5A
:103CB000044601F091F8804601F08AFDCDE90A0141
:103CC0000DF20C5131F81A0001F008FB06462C4A9F
:103CD0002C4B01F053FB044601F07EF8804601F0C6
:103CE00077FDCDE90601AAF103010DF2647252F8E5
:103CF000210001F06DFD0446254A264B01F03EFBF4
:103D0000CDE90201AAF102010DF2647252F821001C
:103D100001F05EFD0646204A204B01F02FFB0446D1
:103D20000D46AAF101010DF2647252F8210001F072
:103D30004FFD35E00008014000009643740000206C
:103D400024000020320000203A0000206001002002
:103D50003E000020364B0020DE4800203333E33F96
:103D60000000A0426572726F723100009C4D00200D
:103D70000000404000007042340000200000F03F8E
:103D80007FFB3A70CE88923F07EBFF1CE6CBAB3F40
:103D9000986E1283C0CAD13FE17A14AE47E1F23F78
:103DA00006466C4A6C4B01F0E9FA804622462B46E7
:103DB00001F024FCCDE90001DDE9022301F03EF829
:103DC000CDE90401DDE9062301F038F8CDE9080169
:103DD000DDE90A2301F032F8CDE90C01DDE90E231B
:103DE00001F02CF8CDE91001DDE9122301F026F8ED
:103DF000CDE9140100F0F0FF0DF2647141F82A00E2
:103E0000BAF1020F0FDD51F82A0001F059FE5349B3
:103E100021F81A0001F5167030F81A007B3801F508
:103E2000167121F81A000AF1010000F0FF0A4C484F
:103E3000008800EB400050453FF703AF322000F010
:103E400077FA002047490880824614E0434830F85A
:103E50001A0044490988884209DD404830F81A00B0
:103E600040490880404830F81A00404908800AF16B
:103E7000010000F0FF0ABAF13C0FE7DB00F0B0F8F8
:103E80003B493A4A128851F8220001F019FE39499B
:103E9000088000F01FFC00203749C880322000F065
:103EA00047FA322000F044FA322000F041FA334859
:103EB0008088334908803148807948802F48C0790C
:103EC00088802E480078C8802C48407808812A488D
:103ED000408848812848808888812A48006801F005
:103EE000EFFD2749C881322000F022FA25480068FA
:103EF00001F0E6FD84B2204800948388428822487D
:103F0000016822A000F074FE322000F011FA322085
:103F100000F00EFA4FF0000A03E00AF1010000F091
:103F2000FF0A0F48008800EB40005045F5DC1248BE
:103F3000408811498988884206DB032017490870A8
:103F4000FDF7BCFE012008E500F0F6FD012004E5C8
:103F5000002002E5295C8FC2F528FC3FDE480020E6
:103F60003E00002032000020364B00203A000020A6
:103F7000E018002042000020600100209055002041
:103F80009851002034000020680000200A25642C8D
:103F900025642C25642C25640000000024000020EA
:103FA00070B50024002500BF0BE00A4931F8140069
:103FB00001F0BEFD0646294601F036FC0546601CB0
:103FC00084B2322CF1DB0449284601F09BFC034902
:103FD000086070BDC0470020000048427800002003
:103FE00070B5002412E00B48008801F0A1FD0546E1
:103FF000094931F8140001F09BFD0646294601F0FD
:1040000081FC064941F82400601C84B23C2CEADBA8
:1040100070BD000032000020DE4800200054002067
:104020002DE9F05F64210020FDF7BAFF32490880D6
:1040300064210120FDF7B4FF30490880084600885C
:1040400001F04CF980462E4A2E4B01F097F90646B6
:104050002D4A2E4B01F0D2FA044600F0BDFE2C4949
:1040600008602C480089322812DA23480088294940
:104070000989294A22F8110026480089312801D1EE
:10408000FFF78EFF23480089401C2249088131E058
:1040900040212248FDF768FF1748008801F048FDDD
:1040A00005461F480168284601F092FE044601F0CB
:1040B00007FD81B21748C288103020F8121014484A
:1040C00001681448C28800F5BC5040F8221011491C
:1040D000CA88014651F8220001F0F2FC1FFA80FA6A
:1040E0000C48C188103030F811B01038C088401C1E
:1040F0000849C880BDE8F09F500000205200002011
:104100001F85EB51B81EC53F48E17A14AE6F62407F
:104110007400002060010020C0470020000801401A
:104120007800002010B55F48807810B1012831D1A7
:1041300031E001205C498880FFF7ECFB50B30CE0D4
:104140005A48006800884FF6FF71884200D105E0A8
:1041500056480068203055490860F1E700BFFDF778
:1041600057FE1022524951480068FEF701FDFDF745
:1041700025FE01204B4948704E4908700020FFF78A
:1041800097FA4D49012248684749091DFEF77CFC12
:10419000002010BD82E04849012248684249091DBB
:1041A000FEF772FC434800783F49C988884264DAC8
:1041B000FFF7B0FB002870D04048006801F080FC99
:1041C00084B23C488288418823463DA000F010FD1F
:1041D0000CE03648006800884FF6FF71884200D135
:1041E00005E032480068203030490860F1E700BF40
:1041F000FDF70EFE10222E492C480068FEF7B8FC91
:10420000FDF7DCFD322000F093F82A480078401CCE
:10421000284908700020FFF74BFA2E4841782EA05D
:10422000FCF77EF8FEF700FCFEF76EFA1E4989687F
:1042300044182046FEF7CCFB01201A4948701D485F
:10424000007819494978884227D117480078012811
:1042500002D0022810D107E0022013490870084656
:104260004078801C487007E001200F49087008461C
:104270004078801C487000BF0FE00E4800780A4963
:10428000C988884209DB002007490870487000F09F
:1042900053FC0120034948707BE700BF00BF0020AA
:1042A00077E7000024000020540100206400002073
:1042B00098510020600100201400002034000020EC
:1042C0000A7375636573733A25642C25642C256421
:1042D000000000009055002063616C656E6461729F
:1042E0002E6D696E206973202564000010B56FF093
:1042F0000400FEF7C5FC0A4800680A49B0FBF1F06B
:10430000094908700846007800EB4001C1EBC01075
:104310004FF6FF7101EAC0000449088010BD00009B
:104320000000002000127A00340100203601002035
:104330000146114A12884A434FF0E0235A61002295
:104340009A611A46126942F001021A6100BF4FF0E9
:10435000E022106900F001021AB100F48032002A54
:10436000F5D04FF0E022126922F001024FF0E02375
:104370001A6100229A617047360100200146114AF5
:1043800012784A434FF0E0235A6100229A611A469C
:10439000126942F001021A6100BF4FF0E022106979
:1043A00000F001021AB100F48032002AF5D04FF07B
:1043B000E022126922F001024FF0E0231A6100228C
:1043C0009A617047340100207FB57F484078022809
:1043D00039D17D488078052831D2DFE800F0030C20
:1043E000151E27000120039078490122086803A9BF
:1043F000FEF74AFB23E0022003907449012208687B
:1044000003A9FEF741FB1AE0032003906F49012244
:10441000086803A9FEF738FB11E0042003906B49FC
:104420000122086803A9FEF72FFB08E0052003908E
:1044300066490122086803A9FEF726FB00BF00BFFA
:104440000120614948706048407803281CD0002052
:104450005F49C88040215F48FDF784FD80215D48A9
:10446000FDF780FD5C4890F82F0C68B15B48008830
:10447000782809D10320544948700021564880F813
:104480002F1C0020554908804F48407803282DD123
:104490004E490122086802A9FEF7E2FABDF80800B9
:1044A000062818D2DFE800F01703070B0F130020CF
:1044B000454988700FE00120434988700BE00220D5
:1044C0004149887007E003203F49887003E00420D9
:1044D0003D49887000BF00BFFFF724FE28B140A00F
:1044E000FBF71EFF0120384948707FBD36484078F1
:1044F000052810D13E4880783D4949783C4CCDE9AB
:1045000000102378E279A179A4882046FEF7FAF911
:1045100001202D4948702C484078042851D12B495E
:10452000012248683349FEF79BFA3248001F818810
:1045300031A0FBF7F5FEC8213648FCF7A4F80025AA
:1045400036E022491422C8683249FEF789FA1F482A
:10455000C06814301D49C8602FA000F049FB00243A
:1045600006E02C4830F8141034A0FBF7D9FE641C88
:10457000142CF6DBC8212748FCF785F813491422D0
:10458000C8682449FEF76CFA1048C06811300F491A
:10459000C86021A000F02CFB002406E01D4830F884
:1045A000141029A0FBF7BCFE641C112CF6DB6D1C5B
:1045B0001048001F8088A842C3DC012002494870CF
:1045C00093E700BF91E700002400002014000020C2
:1045D0006001002000080140604100207C000020B4
:1045E0006D6561737572652066696E6973680A002E
:1045F000904D0020580100204D6561737572655320
:10460000656374696F6E2E416C6C5F74696D657360
:104610003D25640038530020737472696E675F74BF
:10462000656D705F74696D655F646174655F7379F2
:104630006E5F6D6561737572650D0A0074696D65F5
:104640003D25640D0A000000646174653D25640D1C
:104650000A00000000BF054A128802F04002002A4A
:10466000F9D0C2B2014B1B1D1A80704700380140BF
:104670002DE9F04704461CB90020114908801DE0CF
:104680000F482438FEF7E9FB054601F051FA814650
:10469000484601F09DF807460A4A0B4B00F06EFEB3
:1046A000054600F099FB0949086008460168601E4C
:1046B000074A42F82010002001490880BDE8F08731
:1046C00024040040FCA9F1D24D62403F6C00002060
:1046D0009C4D00202DE9F04F93B00024A34600200C
:1046E00012900025814611901090002682460F906E
:1046F0000E9000BF94E1CD4830F81400CC490988F1
:1047000088427DDACB4951F8240001F061F8074670
:10471000C94ACA4B00F0F6FD72D2C64A611C52F873
:10472000210001F055F80746C34AC44B00F024FFAE
:1047300066D8BE4830F81400C1490880BB49601CE7
:1047400031F81000BE494880BA4A52F82410134686
:10475000621C53F8220001F03BFB059001F038F891
:10476000CDE90601B6494988B54A1288881A00F091
:104770009EFDCDE90401AF4951F8240001F028F86D
:10478000AD4AAE4BCDE9000100F02CFFCDE90201AE
:10479000DDE9042300F0F2FD0746DDE9062300F021
:1047A00001FCCDE90A01A649088800F097FDCDE992
:1047B0000801DDE90A2300F041FBCDE90C0100F01E
:1047C00049FDA04908800520FFF7B2FD0520FFF74D
:1047D000AFFD9B48B0F800B0408812909A4951F85C
:1047E0002B0001F051F905469749129A51F8220021
:1047F00001F04AF98146A9EB050001F081F900E0DA
:1048000040E00D90C5F1640001F07AF9894A0C90FE
:1048100052F824101346621C53F8220001F0D8FA13
:104820000B900C9901F0CCF980460D9901F06AF8D3
:104830000746804850F82410384600F0F5FF0F90E6
:104840004A46294681A000F0D3F93220FFF770FDD7
:104850000F9800F0BDFF07463A460B467DA000F0DA
:10486000C7F93220FFF764FD7749764A128851F87C
:10487000220001F025F97B494880084640887A49A2
:10488000C880CCE0694830F814006949098888423A
:10489000F7DD684951F8240000F09AFF07464FF011
:1048A0006632724B00F068FEEBD2624A611C52F82D
:1048B000210000F08DFF07464FF066326B4B00F091
:1048C00021FDDED8594830F814005D4988805749E9
:1048D000601C31F810005A49C880564B621C53F8CE
:1048E00022101A4652F8240001F072FA059000F0E6
:1048F0006FFF074688465249C988514A9288881AEC
:1049000000F0D5FC4B4ACDE90401611C52F82100AE
:1049100000F05EFF4FF06632544BCDE9000100F02D
:1049200061FECDE90201DDE9042300F027FD3A46EE
:104930004346CDE9060100F035FBCDE90A014049C7
:10494000C88800F0CBFCCDE90801DDE90A2300F0BE
:1049500055FECDE90C0100F07DFC45490880384842
:10496000808811903648C08810903749119A51F8C4
:10497000220001F089F806463349109A51F82200C6
:1049800001F082F88246A6EB0A0001F0B9F80D901A
:10499000A6F1960001F0B4F8264B621C0C9053F877
:1049A00022101A4652F8240001F012FA0B900C99CA
:1049B00001F006F980460D9900F0A4FF07461D4856
:1049C00050F82410384601F0F8F90E90524631465E
:1049D0001EA000F00DF93220FFF7AAFC0E9800F09F
:1049E000F7FE07463A460B4622A000F001F93220B6
:1049F000FFF79EFC1B48808860B913491C4A128847
:104A000051F8220001F05CF8164988800846408879
:104A100015494880134881881AA0FBF781FC641C63
:104A20003C2CFFF668AE13B0BDE8F08F364B00208B
:104A30003A000020005400209A9999999999E93FE9
:104A4000440000204C000020E018002025642C25A4
:104A5000640D0A00626C3130303D2531660D0A0D5F
:104A60000A00000060010020280000206666E63F82
:104A70004E000020626C3135303D2531660D0A0D47
:104A80000A00000031353059414C495F50535F698D
:104A90006E736572745F6D6D67683A25640D0A0008
:104AA000FFF724FCFDF741FC4FF4E13000F0C0F8C3
:104AB000FDF7A8F8FEF7C4FDFDF7CAFB48F69F41D5
:104AC00042F20F70FEF730F9FDF7A2F902E0322052
:104AD000FFF72EFCFDF7C0FE0028F8D10BA0FBF776
:104AE0001FFC05E00BA0FBF71BFC3220FFF720FCAE
:104AF000FDF708FB0028F5D10BA0FBF711FC03E044
:104B0000FDF7EAFAFFF760FCFAE700006D6D6D0D46
:104B10000A00000041544B2D484330352045727245
:104B20006F720D0A0000000041544B2D4843303590
:104B3000204F4B0D0A00000010B5002021490880CD
:104B400021490880214908802149086021490881BC
:104B5000C8808880488000211F4880F82E1C0020D3
:104B60001C49C8604FF47F711C48FBF7AEFD3E2125
:104B70001B48FBF7AAFD7C2119487C38FBF7A5FDF3
:104B800041F2707113481030FBF79FFD42F6E0616F
:104B90001448FBF79AFD64211148E038FBF795FDB6
:104BA0004FF416711048FBF76EFD4FF416710C4868
:104BB0003E30FBF768FD4FF4C8710C48FBF785FDEC
:104BC00010BD00003A000020420000203E000020FE
:104BD0007800002060010020604100209C4D0020F2
:104BE000A0480020E0180020364B00200054002090
:104BF0000FB438B505A800900B48009A0499FBF74C
:104C00007DFB0020009000BF084800680028FBD111
:104C10000548FBF70DFD84B221460448001FFEF74E
:104C2000B5F938BC5DF814FBA05D0020840002409B
:104C300010B586B00446012144F20400FDF7F2FBF2
:104C40002348FEF7EBFB4FF40070ADF8140003208F
:104C50008DF8160018208DF8170005A91D48FDF7DE
:104C6000F6F84FF48060ADF8140004208DF81700BA
:104C700005A91848FDF7EBF825208DF80000032062
:104C80008DF801008DF8020001208DF803006846C0
:104C9000FDF752FB01940020ADF80800ADF80A00C2
:104CA000ADF80C00ADF810000C20ADF80E0001A915
:104CB0000748FEF751FC012240F225510448FEF757
:104CC00025FC01210248FEF79DFB06B010BD000047
:104CD000003801400008014002218A1C825C02F574
:104CE000F4624B1CC35C303B03EB830302EB4302D7
:104CF000224B9A804A1D825C303A0B1DC35C303BCC
:104D000003EB830302EB43021C4B9A7101F108028F
:104D1000825C303ACB1DC35C303B03EB830302EB78
:104D20004302164BDA7101F10B02825C303A01F159
:104D30000A03C35C303B03EB830302EB43020F4BDC
:104D40001A7001F10E02825C303A01F10D03C35C6E
:104D5000303B03EB830302EB4302084B5A7001F133
:104D60001102825C303A01F11003C35C303B03EB6B
:104D7000830302EB4302014B9A707047904D002071
:104D800010B500290AD00878002807D005487844D3
:104D9000FCF748FA002801D0002010BD02487844F2
:104DA00010BD0000421300003A13000010B50029A6
:104DB0000AD00878002807D005487844FCF732FA72
:104DC000002801D0002010BD0248784410BD00002A
:104DD000321300002A13000021F00042A2F16052B9
:104DE000B2F5801F01F0004328BFD2F17F6C0BD9D0
:104DF0005FEA001C43EAC20242EB507018BF7047E2
:104E000028BF20F001007047B2F5801FBCBF1846D4
:104E100070474FEA410C1CF5001F02D2084600F013
:104E200096BF70B500F054FB00000089FFF7F6BF95
:104E30004FF00040A0F580007047000010B591EAE7
:104E4000030F48BF83F0004300F1E083841A71EB45
:104E5000030C05D2121943EB0C03001B61EB0C0190
:104E6000DFF824E14FEA1154A4EB135C1EEA430F70
:104E700018BF9EEA445F73D023EA0E03DCF1200ED4
:104E800021EA045143F4801332D322FA0CFE10EBD2
:104E90000E0023FA0CFE41EB0E01CCF1200E03FABA
:104EA0000EFE10EB0E0051F10001B1F5801FCCF1A8
:104EB000200E32D201EB045112FA0EF2BDE810407E
:104EC00058BF7047401C38BF5FEA420218BF7047A6
:104ED000002814BF20F0010041F100014FEA410316
:104EE00013F5001F38BF7047A1F1C04100F03EBB71
:104EF000012A43EB0302ACF1200CDCF11F0E32BFA0
:104F00004FF0000E23FA0CF310EB030041EB0451B9
:104F1000B4EB115FD0D0A1EB045101F58011490829
:104F20005FEA300001EB04510ED350F1000038BFAE
:104F300012FA0EFE08D1BDE81040C9E7401C38BF88
:104F40005FEA4202CAD1C3E7BDE810404FEA41031D
:104F500013F5001F38BF7047A1F1C04100F006BB38
:104F60009EEA445F08D011EA5E0FBDE8104004BF1E
:104F700001F0004100207047BDE8104070B500F01E
:104F8000A7FA00BF64FBBE3E0000E0FF491058BF17
:104F9000C1F140415B1058BFC3F140438B42EFF376
:104FA000008070472DE9C04130B4DFF8A0C23CEA70
:104FB000111418BF3CEA131400F0EC8081EA0305D9
:104FC0001CEA111444EAD57418BF1CEA131500F04A
:104FD000C780A4EB05044FF0004545EAC12145EA2E
:104FE000C32341EA505143EA525304F17F7499427A
:104FF00004F500344FEAC0204FEAC22208BF9042B5
:1050000000F09C804FEA13650FF24016765D4FEA80
:10501000134506FB05F7C7F1807706FB07F74FEA54
:10502000D737A7FB03687642C8F58038A7FB06CEC2
:1050300038BFA8F1010807FB08E64FF0000EA6FBF9
:10504000028CE6FB03CEDCF1000CCEF1004E38BF43
:10505000AEF1010EA6FB0C584FF000074FF0000513
:10506000E6FB0E87A1FB08C6A0FB07CE16EB0E06DB
:1050700045F10005E1FB076515F1E04E7EBFA4F5A3
:1050800080345FEA46066D4116F1800745F1000560
:105090004FEA17274FEA066647EA0567A6F1DE469C
:1050A000B6F1805F4FEA15251FD9384624F0010C70
:1050B00005EBC471BCF1FE6F01EB0C1102D8F0BC22
:1050C000BDE8008124425CBF01F5801E9EEAC47FDA
:1050D00002D4F0BCBDE80081244238D4F0BCA1F178
:1050E000C041BDE8004100F041BA4FEAD22242EA95
:1050F00043524FEAD323A7FB02864FEAD02040EA6F
:10510000415007FB03661EEA0E0F4FEAD12105FB53
:10511000026658BFA6EB0056B6EB00564FEA520E99
:105120004EEAC37E18EB0E0E56EB530EBDD518EBB0
:1051300002085E417F1C55F10005B6E74FF480156B
:105140004FF000074FF000064FF00008ADE7F0BC4D
:105150004FF0000001F1C04101F00041BDE80081C5
:1051600011EA0C1F0CEA131500D00CE013EA0C1F17
:1051700000F025804FF00000F0BC81EA030101F04F
:105180000041BDE80081F0BCBDE8004181EA0301B7
:1051900000F0ECB9F0BCBDE8004170B500F098F942
:1051A000097EFC3E00F007B881EA03014FF00000E1
:1051B00001F00041704781EA030100F0D7B9F0BC6B
:1051C000BDE800414FF0000021497047FFFDFBF9A9
:1051D000F7F5F4F2F0EEEDEBE9E8E6E4E3E1E0DE2A
:1051E000DDDBDAD8D7D5D4D3D1D0CFCDCCCBCAC89C
:1051F000C7C6C5C4C2C1C0BFBEBDBCBBBAB9B8B7C3
:10520000B6B5B4B3B2B1B0AFAEADACABAAA9A8A8B5
:10521000A7A6A5A4A3A3A2A1A09F9F9E9D9C9C9B83
:105220009A9999989797969595949393929191902E
:105230008F8F8E8E8D8C8C8B8B8A898988888787BF
:105240008685858484838382828181800000FF0734
:105250000000F87F4FEA1153A3F58063D3F11E03DA
:10526000A8BFD3F1200C08DB4FF0004242EAC12274
:1052700052EA505232FA03F0704709420BD4102B15
:10528000C4BF0020704703F5787CBCF1FF3F05D018
:105290004FF0FF3070474FF00000704770B500F0DE
:1052A00017F900BF4992248000207047F0E710F002
:1052B000004248BF4042B0FA80F310FA03F10AD02E
:1052C000C3F11D0303F580634FEA415002EB035223
:1052D00002EBD12170474FF000007047B0FA80F325
:1052E00010FA03F10AD0C3F11D0303F580634FEAFE
:1052F00041504FEA035202EBD12170474FF00000BA
:105300007047000051EA030C17D41CF5801F58BFEA
:10531000BCF5801F00F10680994218BF704708BF96
:105320009042704707D711F5801F58BF13F5801FB3
:1053300019D499427047894270471CF5801F08D5DF
:10534000BCF5801FF7D58B4218BF704708BF82425B
:1053500070474FF4001C1CEB410F38BF1CEB430F90
:1053600001D28B42704770B500F0B2F89224490028
:105370004FF000514FF08053FFF708BEDFF848C1EF
:1053800070B51CEA111E1EBF1CEA13159EEA0C0F15
:1053900095EA0C0F00F06F8081EA030423EA4C13B6
:1053A0004EEAD47E21EA4C1141F4801143F480137B
:1053B000AE44A1FB024CA0FB0365AEF17F7E361923
:1053C00055EB0C05A1FB034C4CF10003A0FB021CA8
:1053D00016EB0C06654153F10003094218BF46F075
:1053E000010613F4007F0BD14FEA03314FEA053079
:1053F000340341EA155140EA16506FF003020AE007
:105400004FEAC3214FEAC520F40241EA555140EA70
:1054100056506FF0020202EB2E4201EB025585EA74
:10542000CE710AD05FEA440C18BF24F0004450F15A
:10543000000041F1000120EAD47040F2FE7C624598
:1054400000D270BDA84214BF4FF080444FF04044DA
:10545000002E08BF0024BEF1806FA8BFA1F1C0419B
:10546000BDE8704080F282804FF0000001F1C04141
:1054700001F0004170479EEA0C0F0CEA131518BFAB
:1054800095EA0C0F06D04FF0000081EA030E0EF0F3
:10549000004170BD00F01CF88900013E00F007B823
:1054A00000F009B84FEA430C5FEA5C5C08D081EA7F
:1054B000030100F05BB84FEA410C5FEA5C5CF6D197
:1054C0004FF00000014970470000FF070000F87F1F
:1054D0000EF1020E2EF0030E5EF8046B364205D478
:1054E000012A43EB030515F5001F12D8012841EBF3
:1054F000010C1CF5001F0CD80ED14FEAD17C15F51C
:10550000001F0CEB4C0C0CF1020C08BF4CEBD37CD5
:1055100004E04FF0080C01E04FEAD37C0CEB4C05A3
:1055200026FA05F606F00706B6F1040C06D20EEBD5
:10553000860CBDE870404CF0010C6047DFE80CF0D1
:10554000090B02024FF000414FF00000A1F50021CD
:1055500070BD19461046012851EB010418BFD4F55F
:10556000001484BF002001F0004170BD0808A0F5C0
:1055700000114FEA3101704753EA010C17D41CF5B2
:10558000801F58BFBCF5801F00F106808B4218BFFA
:10559000704708BF8242704707D713F5801F58BF76
:1055A00011F5801F19D48B4270479B4270471CF540
:1055B000801F08D5BCF5801FF7D5994218BF7047EA
:1055C00008BF904270474FF4001C1CEB430F38BFDC
:1055D0001CEB410F01D2994270470FB40CBC03BCC5
:1055E000FFF7C1BE91EA030F10B581F000413FF50E
:1055F0002DAC83F0004300F009B8000010B591EA2B
:10560000030F48BF83F000433FF520AC841A71EBD1
:10561000030C07D212198CF0004C43EB0C03001B57
:1056200061EB0C01DFF8A4E14FEA1154A4EB135C29
:105630001EEA430F18BF9EEA445F00F0B08023EAE1
:105640006E03524221EA0451C3EB6E0338BF5B1E66
:10565000DCF1200E25D322FA0CFE10EB0E0043FAEB
:105660000CFE41EB0E01CCF1200E03FA0EFE10EB06
:105670000E0051F10001CCF1200E29D412FA0EF2E5
:1056800001EB0451BDE8104058BF7047401C1CBFDF
:10569000B2F1004F704700280CBF491C20F00100F8
:1056A000704712EB020E43EB030218BF4FF0010EDE
:1056B0004EEA4202ACF1200CDCF11E0E54D943FA42
:1056C0000CFE10EB0E0051F1FF31CCF11E0ED5D5C2
:1056D0000EF1010E12FA0EFE404141EB010101EB09
:1056E000445C5FEA5C5C10D910EBDE7001EB0451A6
:1056F00038BFBEF1004FBDE8104018BF704700280A
:105700000CBF491C20F00100704730D24FEAD42C66
:1057100011F5001124F400641BD0B1FA81F20B3AA8
:10572000A41AA41ED2F12003914030FA03F31943C6
:10573000904001EBCC71002C01EB0451BDE810400E
:10574000A8BF704701F1C0414FF0000001F00041D7
:105750007047B0FA80F310FA03F100D110BDE41ADB
:10576000173C4805C90AE4E701EB045110BD491094
:1057700001EB0451BDE810404FEA300002E04FF069
:10578000000170474A0008BF0042F8D0B2F5001F80
:1057900028BF704701F000414FF0000070479EEABB
:1057A000445F07D011EA5E0FBDE8104004BF00213E
:1057B00000207047BDE8104070B5FFF789FE00BFBC
:1057C00040DFF63E83F00041104670470000E0FFE6
:1057D00043004FEAD30C4FEA3C0C43401FBF400745
:1057E0000CF1605113F0FE4F70471CF0006F03D1B5
:1057F00000200CF0004170470CF0004343EA507069
:1058000010B540EACC0000F05CFA00BF0000009246
:105810004FEA0001FFF7AABE4FF000414FF0000031
:10582000A1F500217047000090EA010F48BF81F008
:10583000004100F1D482421A3CBF801A89184FEA15
:10584000D0524FF07F4C1CEA410FA2EBD15318BF4E
:105850009CEA026F00F03B804FF0004C4CEA0020C5
:105860004CEA012121FA03FC10EB0C0C1ED202F1D0
:10587000FF325FEA1C2040EBC25038BF70471CF07B
:105880007F0F4FEA400C18BFBCF17F4F38BF704705
:10589000C3F12003994008BF20F00100BCF17F4F05
:1058A00038BF7047A0F1C04000F051BA4FEA3C0049
:1058B000000A40EBC25028BF1CF0FF0F4FEA400C1B
:1058C000E6D018BFBCF17F4F38BF7047EAE79CEACB
:1058D000026F05D010EA5C0F08BF00F0004070476F
:1058E00010B500F0EEF900BF64FBBE3E401058BF9B
:1058F000C0F14040491058BFC1F140418142EFF32F
:10590000008070474FF47F0C1CEAD0121EBF1CEAC7
:10591000D11392EA0C0F93EA0C0F00F0858090EA05
:10592000010F48BF42F4807240F4000C41F40000C3
:105930002CF07F4120F07F4000B58142A2EB0302B2
:105940000FF2081CACEB504EC0F100009EF800E0D6
:105950004FEA4E0E00FB0EFC38BF49004FEA2C1CEC
:1059600002F5FA020CFB0EF34FEACE1E4FEA112CA1
:105970004FEAC1210EEB635E42EB22420EFB0CFCB0
:105980004FEA1C5300FB03114FEA112C4FEA01317F
:105990000EFB0CFC4FEADC4C00FB0C11C14228BF93
:1059A00009184CEB03335DF804EB10EB410143EBBA
:1059B000C250B2F57C0F38BF704729D512F0F00FF6
:1059C0001CBF00F1C04000F000407047008182839E
:1059D0008485868788898B8C8D8E8F9192939596FE
:1059E00097999A9C9D9FA0A2A3A5A7A8AAACAEB088
:1059F000B2B3B5B7B9BCBEC0C2C5C7C9CCCED1D48D
:105A0000D7D9DCDFE2E6E9ECF0F3F7FAFE000000BC
:105A10004FEA400C0CF1807CBCF17E4F28BF7047F0
:105A2000B0F1C04000F093B990EA010F0CEAD11335
:105A300048BF42F48072624538BF634507D213F411
:105A40007F0F16D080EA010000F00040704710B5CB
:105A500000F037F9097EFC3E00F005B880EA01004D
:105A600000F00040704780EA010000F0004000F0C4
:105A70006EB912F47F0F04BF0248704780EA01003C
:105A800000F065B90000C07F41000B0ED3F19E020B
:105A900008D950F400034FEA032323FA02F048BF69
:105AA0004042704710B500F00CF900BF49922480C5
:105AB000002070476FF0004282EA2000704700002B
:105AC000C10DD1F19E0206DB4FEA002343F00043F3
:105AD00023FA02F07047004207D54FEA4001B1F1C6
